:100000000C9464000C948C000C948C000C948C0068
:100010000C948C000C948C000C948C000C948C0030
:100020000C948C000C948C000C948C000C948C0020
:100030000C948C000C948C000C948C000C948C0010
:100040000C943C070C948C000C9451090C949F095F
:100050000C948C000C948C000C948C000C948C00F0
:100060000C948C000C948C000000000024002700ED
:100070002A0000000000250028002B0000000000DE
:1000800023002600290004040404040404040202DA
:100090000202020203030303030301020408102007
:1000A0004080010204081020010204081020000012
:1000B0000007000201000003040600000000000029
:1000C0000000CF010B0BC80111241FBECFEFD8E0F9
:1000D000DEBFCDBF11E0A0E0B1E0E4E0FAE102C094
:1000E00005900D92A032B107D9F711E0A0E2B1E07E
:1000F00001C01D92A93FB107E1F710E0C6ECD0E0C6
:1001000004C02297FE010E94F10CC23CD107C9F73E
:100110000E94610B0C94F50C0C940000CF93DF93BC
:10012000BC018230910510F462E070E0A091F7010B
:10013000B091F801ED01E0E0F0E040E050E021C0D6
:10014000888199818617970769F48A819B81309706
:1001500019F09383828304C09093F8018093F70190
:10016000FE0134C06817790738F44115510519F0BC
:100170008417950708F4AC01FE018A819B819C01DC
:10018000E9012097E9F641155105A9F1CA01861B3D
:10019000970B049708F4BA01E0E0F0E02AC08D91D3
:1001A0009C91119784179507F9F46417750781F4EA
:1001B00012968D919C911397309719F093838283B7
:1001C00004C09093F8018093F701FD0132964CC072
:1001D000CA01861B970BFD01E80FF91F619371930C
:1001E00002978D939C9340C0FD01828193819C0175
:1001F000D9011097A1F68091F5019091F601892B14
:1002000041F480910201909103019093F601809353
:10021000F50140910401509105014115510541F44A
:100220004DB75EB78091000190910101481B590BB9
:100230002091F5013091F601CA01821B930B8617BC
:10024000970780F0AB014E5F5F4F8417950750F022
:10025000420F531F5093F6014093F501F90161934A
:10026000719302C0E0E0F0E0CF01DF91CF910895FB
:10027000CF93DF93009709F450C0EC0122971B82C3
:100280001A82A091F701B091F801109709F140E0AE
:1002900050E0AC17BD0708F1BB83AA83FE01219192
:1002A0003191E20FF31FAE17BF0779F48D919C9146
:1002B0001197280F391F2E5F3F4F398328831296DD
:1002C0008D919C9113979B838A834115510571F4FD
:1002D000D093F801C093F70120C012968D919C91A4
:1002E0001397AD01009711F0DC01D3CFFA01D3834E
:1002F000C28321913191E20FF31FCE17DF0769F41A
:1003000088819981280F391F2E5F3F4FFA01318371
:1003100020838A819B8193838283DF91CF9108958B
:100320000F93DF93CF93CDB7DEB728970FB6F8942E
:10033000DEBF0FBECDBF81309105B9F46F5F7F4F37
:10034000E9F4DE011196E7E0F1E088E001900D921A
:100350008150E1F780E291E0BE016F5F7F4F48E09E
:1003600024E002E00E942C0709C0892B39F46F5F5A
:100370007F4F21F480E291E00E94550228960FB64B
:10038000F894DEBF0FBECDBFCF91DF910F910895DE
:1003900080E090E06FEF7FEF0E949001089581E090
:1003A00090E06FEF7FEF0E949001089580E291E06E
:1003B00060E371E041E020E00E94D804BC0183EDDD
:1003C00091E04AE050E00E94620C0895CF93DF93E1
:1003D00064EF71E080E090E00E94AA078DE061E0A8
:1003E0000E946A088DE061E00E94A908C0E0D0E0A8
:1003F00080E291E061E00E94B806219681E0C03978
:10040000D807B1F78DE060E00E94A90883ED91E084
:1004100040E855E260E070E00E94DA09C0E0D0E018
:10042000E0912001F0912101EC0FFD1F60817181AD
:1004300083ED91E04AE050E00E94510C83ED91E0A1
:1004400060E20E949A0B2296C031D10549F783EDF4
:1004500091E00E94A20BC0E0D0E0E0912201F09177
:100460002301EC0FFD1F6081718183ED91E04AE073
:1004700050E00E94510C83ED91E060E20E949A0BE3
:100480002296C031D10549F783ED91E00E94A20B7D
:1004900083ED91E00E94A20B68EE73E080E090E0B3
:1004A0000E94AA07DF91CF910895CF93DF93EC01CB
:1004B00088859985009711F00E9438018A819B8177
:1004C000009711F00E9438018E819F81009711F0F2
:1004D0000E94380188819981009711F00E943801AB
:1004E0008C819D81009711F00E943801DF91CF919E
:1004F0000895AF92BF92CF92DF92EF92FF920F9347
:100500001F93CF93DF93EC015B0188859985892B3D
:1005100009F44AC090E009C0E92FF0E0EE0FFF1F98
:10052000EA0DFB1D118210829F5F8A859817A0F348
:10053000CC241BC08D2D90E07C01EE0CFF1CEA0C3E
:10054000FB1CF70100811181E885F985E80FF91F8F
:1005500080810E944808080F191FF701118300834A
:10056000D3948A85D81630F3C3948F85C81610F0BB
:1005700040E017C0DD24F5CFE42FF0E0EE0FFF1FC1
:10058000EA0DFB1D6F85862F90E09595879520815C
:100590003181820F931F70E00E949E0C71836083F3
:1005A0004F5F8A85481740F3DF91CF911F910F91DC
:1005B000FF90EF90DF90CF90BF90AF900895CF93D2
:1005C000DF93EC018B858F3F59F061E00E946A0850
:1005D0008B8561E00E94A90888EC90E00E940308E6
:1005E000DF91CF910895CF93DF93EC018B858F3FFF
:1005F00059F061E00E946A088B8560E00E94A908BA
:1006000088EC90E00E940308DF91CF9108956F92EB
:100610007F928F929F92AF92BF92CF92DF92FF9282
:100620000F931F93CF93DF93EC013B01888599854E
:10063000892B09F473C0FF241CC00F2D10E0F801B2
:10064000EE0FFF1FE60DF71D8C859D85918380833E
:10065000E885F985E00FF11F808161E00E94A9081B
:10066000E885F985E00FF11F808161E00E946A084A
:10067000F3948A85F81608F38AE090E00E94030854
:10068000FF2413C00F2D10E0E885F985E00FF11F5E
:10069000808160E00E946A08E885F985E00FF11F1B
:1006A000808160E00E94A908F3948A85F81650F3CF
:1006B0000E9484075B016C0122C00E9484074B01E9
:1006C0008A189B08FF2418C00F2D10E0E885F985D3
:1006D000E00FF11F80810E94FD08892B61F4F80171
:1006E000EE0FFF1FE60DF71D808191818816990698
:1006F00010F491828082F3948A85F81628F30E9480
:1007000084076A197B098C099D092C853D8540E089
:1007100050E0621773078407950778F2DF91CF9155
:100720001F910F91FF90DF90CF90BF90AF909F905F
:100730008F907F906F900895CF92DF92EF92FF920B
:100740000F931F93DF93CF93CDB7DEB7A0970FB66C
:10075000F894DEBF0FBECDBF8C016B01F42E842F49
:100760008150823018F4C8010E94DF02D8011E9621
:100770008C91882389F4C801B6010E940703C8013F
:100780000E94F302B2E0FB16D9F5C801BE016F5F0B
:100790007F4F0E94070310C0C801B6010E94790272
:1007A000C8010E94F302E2E0FE1651F5C801BE0145
:1007B0006F5F7F4F0E94790240E0BE016F5F7F4F05
:1007C0001AC0E42FF0E0EE0FFF1F7601EE0EFF1EC1
:1007D000E60FF71FD8011C962D913C911D97808143
:1007E0009181281B390BF70180819181820F931F22
:1007F000918380834F5FD8011A968C91481708F334
:10080000A0960FB6F894DEBF0FBECDBFCF91DF919B
:100810001F910F91FF90EF90DF90CF9008959F92DE
:10082000AF92BF92CF92DF92EF92FF920F931F93FE
:10083000CF93DF93EC01162F072F942E22E042175F
:1008400011F0442351F48C819D81892B09F4A4C0BB
:100850008E819F81892B09F49FC0892D8150823020
:1008600050F488819981892B09F496C08A819B81F3
:10087000892B09F491C0CE01612F702F492D0E9460
:100880009C03812F902F9C015901CC24DD2400E092
:1008900010E07CC081E0981669F4EA81FB81E00FEA
:1008A000F11F20813181E881F981E00FF11F408142
:1008B00051813DC0AC81BD81992059F4EE81FF8109
:1008C000E00FF11F20813181A00FB11F4D915C918C
:1008D0002EC0A00FB11F8D919C91E881F981E00F8E
:1008E000F11F20813181EC85FD858217930710F47B
:1008F000AF0105C0A9014E0F5F1F481B590BEE81C8
:10090000FF81E00FF11F60817181EA81FB81E00FBF
:10091000F11F80819181EC85FD856817790710F4BE
:100920009F0105C09C012E0F3F1F261B370B79012D
:10093000E41AF50A01F1F5016081718180E090E02F
:100940009A0140E050E0621B730B840B950B28EE7C
:1009500033E040E050E00E947F0C970140E050E01F
:100960000E94D40CC901F3E0293E3F0714F088EE41
:1009700093E097FF02C080E090E0F50181939193AE
:100980005F010894C11CD11C0E5F1F4F8A8590E047
:10099000C816D9060CF47ECFDF91CF911F910F912D
:1009A000FF90EF90DF90CF90BF90AF909F90089511
:1009B0002F923F924F925F926F927F928F929F926F
:1009C000AF92BF92CF92DF92EF92FF920F931F935D
:1009D000DF93CF9300D000D0CDB7DEB78C01F62ED9
:1009E000E72E2A830E940F04D8011A96BC91B9837E
:1009F0002F2D3E2DC9018C015524442466247724D3
:100A000043011C821B82AA24BB24650128EE222EEE
:100A100023E0322E32C0F801E080F180FA81FF231A
:100A200021F091012E193F09790139ECE316F10407
:100A300014F04424439483E3E816F1049CF0B701D6
:100A4000882777FD8095982FA60195010E947F0C3D
:100A5000660E771E881E991EAB81BC81AE0DBF1D30
:100A6000BC83AB83539488EE93E0A0E0B0E0A80E83
:100A7000B91ECA1EDB1E0E5F1F4F9981591658F210
:100A8000442021F5692F70E084EF91E0DC016A9F3A
:100A9000C0016B9F900D7A9F900D1124845F91404F
:100AA0002091400130914101281739071CF440E0A2
:100AB00050E01AC088EE93E0689FA001699F500D36
:100AC000789F500D1124485E53400EC0EB81FC818D
:100AD0009F0140E050E0C401B3010E94B20CA901A3
:100AE0003093410120934001CA010F900F900F9065
:100AF0000F90CF91DF911F910F91FF90EF90DF90BA
:100B0000CF90BF90AF909F908F907F906F905F90AD
:100B10004F903F902F9008952F923F924F925F9267
:100B20006F927F928F929F92AF92BF92CF92DF92FD
:100B3000EF92FF920F931F93DF93CF93CDB7DEB762
:100B4000C356D0400FB6F894DEBF0FBECDBF7C01B8
:100B50005B016A01A2962FAFA297DA018D919C9159
:100B6000892B11F5F701828590E0880F991F0E946B
:100B70008E00D6018D939C93009709F4DFC020E08E
:100B800030E00CC0C901880F991FD601ED91FC918E
:100B9000E80FF91F118210822F5F3F4FF701828506
:100BA00090E02817390774F3D5018D919C91892B1A
:100BB00089F000E010E03E010894611C711C71E4B2
:100BC000272E312C2C0E3D1E61E2462E512C4C0E50
:100BD0005D1E28C0F701828590E0880F991F0E9452
:100BE0008E00D5018D939C93009709F4A7C020E057
:100BF00030E011C0C901880F991FD501ED91FC911A
:100C0000E80FF91FD7011C968D919C911D97918338
:100C100080832F5F3F4FF701828590E028173907C7
:100C20004CF3C7CFC701B301A2964FADA2970E9464
:100C30009C03D7011A968C91882E9924A101F30167
:100C4000A4965FAE4EAEA49760E070E034C001158C
:100C5000110559F0A496AEADBFADA4972D913C916E
:100C6000808191812817390758F480819181A49659
:100C7000AEADBFADA4978D939C930115110541F0C6
:100C8000DA012D913C91808191818217930728F49C
:100C900080819181DA018D939C936F5F7F4F4E5FCE
:100CA0005F4F3296A4968EAD9FADA4970296A49600
:100CB0009FAF8EAFA497681579054CF20F5F1F4F59
:100CC0000A30110509F0AECF40E050E020E030E0FE
:100CD0008E010F5B1F4FBE016F5D7F4F28C0F80173
:100CE000E20FF31F80809180F601A081B181A20FF5
:100CF000B31F8D919C9111978815990510F48D92D1
:100D00009C92FB01E20FF31F80809180F501A0818E
:100D1000B181A20FB31F8D919C91119788169906EE
:100D200010F48D929C924F5F5F4F2E5F3F4FD70123
:100D30001A968C9190E0481759078CF2CD59DF4FE5
:100D40000FB6F894DEBF0FBECDBFCF91DF911F91DC
:100D50000F91FF90EF90DF90CF90BF90AF909F905A
:100D60008F907F906F905F904F903F902F9008955D
:100D70001F93CF93DF93EC01162F862F8150823083
:100D800040F4AE014E5F5F4FCE01BE0121E00E94F4
:100D90008C05123011F0112349F4AE014A5F5F4F08
:100DA000CE012496BE0120E00E948C05DF91CF91F8
:100DB0001F910895EF92FF920F931F93CF93DF93AC
:100DC000EC017B01122F198218821B821A821D826C
:100DD0001C821F821E82413118F080E18A8701C087
:100DE0004A8788859985892B11F090E014C08A85FF
:100DF00090E00E948E00998788870097B1F710C015
:100E0000E92FF0E0A885B985AE0FBF1FEE0DFF1DDD
:100E100080818C939F5F8A85981790F31B870E873C
:100E2000DF91CF911F910F91FF90EF900895EF9276
:100E3000FF920F931F937C01122F202F01E00E943D
:100E4000DA06F70117878FEF93E0958784871F9164
:100E50000F91FF90EF9008950F93FC011182108283
:100E600013821282158214821782168211861086CE
:100E70000E9417070F9108951F920F920FB60F92BD
:100E800011242F933F938F939F93AF93BF938091A0
:100E9000460190914701A0914801B09149013091DC
:100EA0004A010196A11DB11D232F2D5F2D3720F082
:100EB0002D570196A11DB11D20934A018093460133
:100EC00090934701A0934801B0934901809142015A
:100ED00090914301A0914401B09145010196A11D5B
:100EE000B11D8093420190934301A0934401B093BC
:100EF0004501BF91AF919F918F913F912F910F909D
:100F00000FBE0F901F9018959FB7F8942091420143
:100F100030914301409144015091450186B5A89B11
:100F200006C08F3F21F02F5F3F4F4F4F5F4F9FBF56
:100F3000542F432F322F2227280F311D411D511DC1
:100F400082E0220F331F441F551F8A95D1F7B90144
:100F5000CA0108959B01AC017FB7F89480914201CA
:100F600090914301A0914401B091450166B5A89BC1
:100F700005C06F3F19F00196A11DB11D7FBFBA2FAB
:100F8000A92F982F8827860F911DA11DB11D62E002
:100F9000880F991FAA1FBB1F6A95D1F7BC012DC0EE
:100FA000FFB7F8948091420190914301A0914401D0
:100FB000B0914501E6B5A89B05C0EF3F19F0019639
:100FC000A11DB11DFFBFBA2FA92F982F88278E0F03
:100FD000911DA11DB11DE2E0880F991FAA1FBB1F23
:100FE000EA95D1F7861B970B885E9340C8F2215093
:100FF00030404040504068517C4F2115310541053B
:10100000510571F60895019739F0880F991F880FDF
:10101000991F02970197F1F70895789484B582603B
:1010200084BD84B5816084BD85B5826085BD85B58C
:10103000816085BDEEE6F0E0808181608083E1E83B
:10104000F0E0108280818260808380818160808373
:10105000E0E8F0E0808181608083E1EBF0E0808176
:1010600084608083E0EBF0E0808181608083EAE748
:10107000F0E08081846080838081826080838081D1
:10108000816080838081806880831092C100089590
:10109000982F8E3008F09E509770809106018295AF
:1010A000880F880F807C892B80937C0080917A0048
:1010B000806480937A0080917A0086FDFCCF209135
:1010C000780040917900942F80E030E0282B392B74
:1010D000C9010895CF93DF93482F50E0CA01865687
:1010E0009F4FFC0134914A575F4FFA018491882346
:1010F00069F190E0880F991FFC01E859FF4FA59115
:10110000B491FC01EE58FF4FC591D491662351F480
:101110002FB7F8948C91932F909589238C93888185
:1011200089230BC0623061F42FB7F8948C91932F10
:10113000909589238C938881832B88832FBF06C049
:101140009FB7F8948C91832B8C939FBFDF91CF91A5
:101150000895482F50E0CA0182559F4FFC01249109
:10116000CA0186569F4FFC0194914A575F4FFA017E
:101170003491332309F440C0222351F1233071F01C
:10118000243028F42130A1F0223011F514C026308B
:10119000B1F02730C1F02430D9F404C08091800030
:1011A0008F7703C0809180008F7D8093800010C076
:1011B00084B58F7702C084B58F7D84BD09C08091CE
:1011C000B0008F7703C08091B0008F7D8093B00016
:1011D000E32FF0E0EE0FFF1FEE58FF4FA591B49103
:1011E0002FB7F894662321F48C919095892302C03F
:1011F0008C91892B8C932FBF0895682F70E0CB01C1
:1012000082559F4FFC012491CB0186569F4FFC01D4
:1012100044916A577F4FFB019491992319F420E080
:1012200030E03CC0222351F1233071F0243028F407
:101230002130A1F0223011F514C02630B1F0273052
:10124000C1F02430D9F404C0809180008F7703C0AE
:10125000809180008F7D8093800010C084B58F774F
:1012600002C084B58F7D84BD09C08091B0008F77A6
:1012700003C08091B0008F7D8093B000892F90E0F3
:10128000880F991F84589F4FFC01A591B4918C91B0
:1012900020E030E0842311F021E030E0C90108951E
:1012A00008951F920F920FB60F9211242F933F9320
:1012B0004F938F939F93EF93FF938091C00082FD94
:1012C0001DC04091C60020918B0130918C012F5F91
:1012D0003F4F2F73307080918D0190918E012817B0
:1012E000390771F0E0918B01F0918C01E55BFE4FC5
:1012F000408330938C0120938B0102C08091C60003
:10130000FF91EF919F918F914F913F912F910F906E
:101310000FBE0F901F901895E091DF01F091E00152
:10132000E05CFF4F8191919120813181821B930B71
:101330008F739070892B11F00E94500908951F92AD
:101340000F920FB60F9211242F933F938F939F9379
:10135000EF93FF932091CF013091D0018091D10183
:101360009091D2012817390731F48091C1008F7D07
:101370008093C10014C0E091D101F091D201E157F6
:10138000FE4F20818091D1019091D20101968F73FF
:1013900090709093D2018093D1012093C600FF9169
:1013A000EF919F918F913F912F910F900FBE0F90D2
:1013B0001F901895AF92BF92DF92EF92FF920F931A
:1013C0001F93CF93DF93EC017A018B01DD24403032
:1013D00081EE580780E0680780E0780711F0DD248F
:1013E000D39491E0A92EB12CEC89FD89DD2069F020
:1013F000C50108A002C0880F991F0A94E2F78083F4
:1014000060E079E08DE390E005C0108260E874E868
:101410008EE190E0A80197010E94B20C215030406B
:1014200040405040569547953795279580E12030AC
:10143000380720F0DD2011F0DD24D6CFE889F989C6
:101440003083EA89FB89208319A2EE89FF894081D4
:1014500021E030E0C9010C8C02C0880F991F0A946A
:10146000E2F7482B4083EE89FF894081C9010D8C4A
:1014700002C0880F991F0A94E2F7482B4083EE8937
:10148000FF894081C9010E8C02C0880F991F0A9400
:10149000E2F7482B4083EE89FF8980810F8C02C0E0
:1014A000220F331F0A94E2F7209528232083DF912F
:1014B000CF911F910F91FF90EF90DF90BF90AF9071
:1014C0000895DC011C96ED91FC911D97E05CFF4FA7
:1014D0002191319180819181281B390B2F733070BC
:1014E000C9010895DC011C96ED91FC911D97E05C0B
:1014F000FF4F20813181E054F040DF01AE5BBF4FF0
:101500008D919C9111972817390719F42FEF3FEF10
:1015100007C08D919C91E80FF91F8081282F30E042
:10152000C9010895DC011C96ED91FC911D97E05CCA
:10153000FF4F20813181E054F040DF01AE5BBF4FAF
:101540008D919C9111972817390719F42FEF3FEFD0
:1015500010C08D919C911197E80FF91F20818D91FA
:101560009C91119701968F73907011969C938E9316
:1015700030E0C9010895DC0191968C919197882300
:1015800039F05496ED91FC915597808186FFF9CF03
:1015900091961C920895CF93DF93EC01EE85FF8521
:1015A000E05CFF4F20813181E054F0402F5F3F4FDE
:1015B0002F733070DF01AE5BBF4F8D919C911197FF
:1015C00028173907D1F3E05CFF4F80819181E05407
:1015D000F040E80FF91F6083EE85FF85E05CFF4F68
:1015E00031832083EE89FF89208181E090E00F8C98
:1015F00002C0880F991F0A94E2F7282B208381E00C
:1016000089A3EC89FD8980818064808381E090E0FA
:10161000DF91CF9108951092D6011092D50188EEF6
:1016200093E0A0E0B0E08093D7019093D801A0931D
:10163000D901B093DA0183E191E09093D4018093D2
:10164000D3018BE491E09093E0018093DF018FE878
:1016500091E09093E2018093E10185EC90E090931A
:10166000E4018093E30184EC90E09093E6018093A1
:10167000E50180EC90E09093E8018093E70181EC34
:1016800090E09093EA018093E90182EC90E09093DE
:10169000EC018093EB0186EC90E09093EE01809357
:1016A000ED0184E08093EF0183E08093F00187E017
:1016B0008093F10185E08093F20181E08093F30152
:1016C0000895CF93DF930E940D080E94E601CCE8B5
:1016D000D9E00E94D6012097E1F30E948C09F9CF4E
:1016E000CF92DF92EF92FF920F931F93CF93DF93EE
:1016F0007C016B018A01C0E0D0E00FC0D6016D9182
:101700006D01D701ED91FC910190F081E02DC701B1
:101710000995C80FD91F015010400115110571F727
:10172000CE01DF91CF911F910F91FF90EF90DF904D
:10173000CF900895DC01ED91FC910190F081E02DB6
:1017400009950895EF92FF920F931F938C01DC018E
:10175000ED91FC910190F081E02D6DE009957C0107
:10176000D801ED91FC910190F081E02DC8016AE073
:1017700009959C012E0D3F1DC9011F910F91FF90EE
:10178000EF900895CF93DF93EC016115710519F483
:1017900020E030E00FC0DB010D900020E9F7119749
:1017A000A61BB70BE881F9810280F381E02DAD0122
:1017B00009959C01C901DF91CF9108954F925F92E5
:1017C0007F928F929F92AF92BF92CF92DF92EF92D1
:1017D000FF920F931F93DF93CF93CDB7DEB7A197FF
:1017E0000FB6F894DEBF0FBECDBF2C01742ECB0117
:1017F000223008F42AE019A231E2C32ED12CCC0EFB
:10180000DD1E822E9924AA24BB24672D752FA501E5
:1018100094010E94B20C79018A01C801B701A501A7
:1018200094010E947F0C472D461B0894C108D108E3
:101830004A3014F4405D01C0495CF6014083E11474
:10184000F1040105110521F07E2C5F2DC801DDCFCB
:10185000C201B6010E94C20BA1960FB6F894DEBF7A
:101860000FBECDBFCF91DF911F910F91FF90EF90F1
:10187000DF90CF90BF90AF909F908F907F905F90C0
:101880004F900895DC012115310541F4ED91FC9153
:101890000190F081E02D642F099508950E94DE0BE0
:1018A0000895EF92FF920F931F939A017B0100E03E
:1018B00010E0B801A7010E94420C1F910F91FF9008
:1018C000EF900895CF92DF92EF92FF920F931F93C4
:1018D0006C017B019A0100E010E0B801A7010E94B1
:1018E000420C8C01C6010E94A20B080F191FC801EF
:1018F0001F910F91FF90EF90DF90CF900895629F1E
:10190000D001739FF001829FE00DF11D649FE00DF7
:10191000F11D929FF00D839FF00D749FF00D659F58
:10192000F00D9927729FB00DE11DF91F639FB00D57
:10193000E11DF91FBD01CF0111240895AA1BBB1B96
:1019400051E107C0AA1FBB1FA617B70710F0A61BBF
:10195000B70B881F991F5A95A9F780959095BC01E0
:10196000CD010895A1E21A2EAA1BBB1BFD010DC0DB
:10197000AA1FBB1FEE1FFF1FA217B307E407F5073F
:1019800020F0A21BB30BE40BF50B661F771F881F1B
:10199000991F1A9469F760957095809590959B01B1
:1019A000AC01BD01CF01089597FB092E05260ED08D
:1019B00057FD04D0D7DF0AD0001C38F4509540956D
:1019C000309521953F4F4F4F5F4F0895F6F7909513
:1019D0008095709561957F4F8F4F9F4F0895EE0FC3
:1019E000FF1F0590F491E02D099410E0C6ECD0E0C3
:1019F00004C0FE010E94F10C2296C83CD107C9F731
:041A0000F894FFCF88
:101A04002000F9010000010001020304050607009B
:101A1400000000CB0A700B610A920A720ABB0A002A
:00000001FF
