:100000000C9464000C948C000C948C000C948C0068
:100010000C948C000C948C000C948C000C948C0030
:100020000C948C000C948C000C948C000C948C0020
:100030000C948C000C948C000C948C000C948C0010
:100040000C94B5090C948C000C94CA0B0C94180CED
:100050000C948C000C948C000C948C000C948C00F0
:100060000C948C000C948C000000000024002700ED
:100070002A0000000000250028002B0000000000DE
:1000800023002600290004040404040404040202DA
:100090000202020203030303030301020408102007
:1000A0004080010204081020010204081020000012
:1000B0000007000201000003040600000000000029
:1000C0000000D301840DCC0111241FBECFEFD8E076
:1000D000DEBFCDBF11E0A0E0B1E0E0EFF1E202C091
:1000E00005900D92AC34B107D9F712E0ACE4B1E061
:1000F00001C01D92AD33B107E1F710E0C6ECD0E0CE
:1001000004C02297FE010E94E710C23CD107C9F744
:100110000E94DA0D0C94EB100C940000CF93DF9347
:10012000BC018230910510F462E070E0A0913B02C6
:10013000B0913C02ED01E0E0F0E040E050E021C091
:10014000888199818617970769F48A819B81309706
:1001500019F09383828304C090933C0280933B0206
:10016000FE0134C06817790738F44115510519F0BC
:100170008417950708F4AC01FE018A819B819C01DC
:10018000E9012097E9F641155105A9F1CA01861B3D
:10019000970B049708F4BA01E0E0F0E02AC08D91D3
:1001A0009C91119784179507F9F46417750781F4EA
:1001B00012968D919C911397309719F093838283B7
:1001C00004C090933C0280933B02FD0132964CC0E8
:1001D000CA01861B970BFD01E80FF91F619371930C
:1001E00002978D939C9340C0FD01828193819C0175
:1001F000D9011097A1F68091390290913A02892B8A
:1002000041F480911B0190911C0190933A028093DC
:10021000390240911D0150911E014115510541F4D3
:100220004DB75EB78091190190911A01481B590B87
:100230002091390230913A02CA01821B930B861732
:10024000970780F0AB014E5F5F4F8417950750F022
:10025000420F531F50933A0240933902F9016193C0
:10026000719302C0E0E0F0E0CF01DF91CF910895FB
:10027000CF93DF93009709F450C0EC0122971B82C3
:100280001A82A0913B02B0913C02109709F140E024
:1002900050E0AC17BD0708F1BB83AA83FE01219192
:1002A0003191E20FF31FAE17BF0779F48D919C9146
:1002B0001197280F391F2E5F3F4F398328831296DD
:1002C0008D919C9113979B838A834115510571F4FD
:1002D000D0933C02C0933B0220C012968D919C911A
:1002E0001397AD01009711F0DC01D3CFFA01D3834E
:1002F000C28321913191E20FF31FCE17DF0769F41A
:1003000088819981280F391F2E5F3F4FFA01318371
:1003100020838A819B8193838283DF91CF9108958B
:100320000F93DF93CF93CDB7DEB728970FB6F8942E
:10033000DEBF0FBECDBF81309105D9F46F5F7F4F17
:1003400009F5DE011196E4E3F1E088E001900D92F9
:100350008150E1F78CE491E0BE016F5F7F4F48E090
:1003600024E00BE00E94A5098CE591E00E944B047B
:1003700009C0892B39F46F5F7F4F21F48CE491E041
:100380000E94CE0428960FB6F894DEBF0FBECDBFF4
:10039000CF91DF910F91089580E090E06FEF7FEFB4
:1003A0000E949001089581E090E06FEF7FEF0E943E
:1003B00090010895AF92BF92CF92DF92EF92FF9299
:1003C0000F931F938CE491E06DE571E041E020E034
:1003D0000E9451079C01909376018093750186518C
:1003E0009D408D52914098F484E690E090932401D2
:1003F0008093230183E393E3A3E3B0E48093250197
:1004000090932601A0932701B093280118C0C90139
:10041000845C9940815D9740B8F480E090E0A0E46E
:10042000B0E48093250190932601A0932701B09317
:10043000280186E490E0909324018093230180E0DA
:1004400090E0A0E7B2E416C080E090E0A0E2B0E463
:100450008093250190932601A0932701B093280152
:1004600088E290E0909324018093230180E090E063
:10047000A0EAB2E48093290190932A01A0932B0172
:10048000B0932C0180E090E0A0E0B0E080932D01DB
:1004900090932E01A0932F01B093300189010C5A43
:1004A0001D40B801882777FD8095982F0E94860F00
:1004B0002EEB31E14CE15CE30E9412100E94530FDD
:1004C0009B01AC0130937A01209379011093820152
:1004D00000938101E0916F01F09170017B01EE1AB0
:1004E000FF0AF0927C01E0927B013093700120932F
:1004F0006F01882777FD8095982F0E94860F2091A5
:1005000025013091260140912701509128010E9438
:1005100012105B016C010027F7FC0095102FC80139
:10052000B7010E94860F2091290130912A01409144
:100530002B0150912C010E9412109B01AC01C601AD
:10054000B5010E94EF0E7B018C01609171017091E9
:10055000720180917301909174010E94860F20E0D6
:1005600030E040E050E00E9412109B01AC01C80155
:10057000B7010E94EF0E0E94530F2091230130918A
:100580002401A901461B570B50937E0140937D0126
:10059000620F731F7093800160937F014F3F51057D
:1005A00039F034F08FEF90E090937E0180937D01DD
:1005B00080917D0190917E0181509F4F34F481E0C4
:1005C0009FEF90937E0180937D016F3F710539F01D
:1005D00034F08FEF90E09093800180937F018091C1
:1005E0007F019091800181509F4F34F481E09FEF13
:1005F0009093800180937F0160917F0170918001D1
:1006000080917D0190917E010E94C3041F910F9102
:10061000FF90EF90DF90CF90BF90AF9008950F9331
:100620001F93CF93DF9388E060E00E94E30A80E0AD
:1006300090E060E070E00E94C30481E090E090935D
:10064000200180931F01909322018093210187E173
:1006500092E040E855E260E070E00E94530C00E058
:1006600010E028C02091310130913201C930D1050C
:1006700030F088279927821B930BB90105C06627A4
:100680007727621B730BC9010E94C3048CE491E0BD
:1006900061E00E94310964E170E080E090E00E9436
:1006A000230A2196CC30D105E9F60F5F1F4F0730A2
:1006B000110519F0CBEFDFEFD5CF80E090E060E0DF
:1006C00070E00E94C30481E090E090932001809349
:1006D0001F019093220180932101C0E0D0E06AE0E5
:1006E00070E080E090E00E94230AE0914C01F091DC
:1006F0004D01EC0FFD1F6081718187E192E04AE0BE
:1007000050E00E94CA0E87E192E060E20E94130E60
:10071000E0914C01F0914D01EC0FFD1F9081818122
:1007200080936D0190936E012296C031D105B9F688
:1007300087E192E00E941B0EC0E0D0E06AE070E02A
:1007400080E090E00E94230AE0914E01F0914F0179
:10075000EC0FFD1F6081718187E192E04AE050E07B
:100760000E94CA0E87E192E060E20E94130EE091BF
:100770004E01F0914F01EC0FFD1F9081818180931C
:100780006D0190936E012296C031D105B9F668EBE8
:100790007BE080E090E00E94230A88E00E94760BD4
:1007A000909378018093770113C088E00E94760BC4
:1007B000909378018093770187E192E060E071E0A7
:1007C0000E94DB0E68EE73E080E090E00E94230A56
:1007D0008091770190917801019739F360ED77E08E
:1007E00080E090E00E94230A87E192E061E171E0FD
:1007F0000E94DB0EDF91CF911F910F910895282F5A
:10080000883068F481E090E002C0880F991F2A9533
:10081000E2F7282FAAE2B0E0EBE2F0E029C08E3048
:1008200080F430E02850304081E090E002C0880F32
:10083000991F2A95E2F7282FA4E2B0E0E5E2F0E064
:1008400017C0853130F020E0A0E0B0E0E0E0F0E05B
:100850000FC030E02E50304081E090E002C0880FA1
:10086000991F2A95E2F7282FA7E2B0E0E8E2F0E02E
:100870006F3F19F48081822709C0662319F08081B7
:10088000822B04C09081822F8095892380838C9154
:10089000822B8C930895089583EF84BD81EF80931C
:1008A0008000EAE8F0E01182108280819181E8E81E
:1008B000F0E0918380838081918188BD88B587BD78
:1008C00086E060E00E94FF0385E060E00E94FF0395
:1008D00089E060E00E94FF038AE060E00E94FF037D
:1008E000089580918301882329F481E08093830116
:1008F0000E944C040895CF93DF93EC010E94710491
:10090000D7FD02C020E004C0D095C195DF4F21E0A3
:10091000CE01CF3FD10519F014F08FEF90E02223E4
:1009200019F018BC87BD02C088BD17BCDF91CF91FC
:100930000895CF93DF93EC010E947104D7FD02C0AC
:1009400020E004C0D095C195DF4F21E0CE01CF3F1C
:10095000D10519F014F08FEF90E0222349F01092A6
:100960008B0010928A00909389008093880008C0C1
:1009700090938B0080938A001092890010928800D7
:10098000DF91CF9108950F931F938B010E947B04F9
:10099000C8010E9499041F910F910895CF93DF938E
:1009A000EC0188859985009711F00E9438018A81B1
:1009B0009B81009711F00E9438018E819F810097E2
:1009C00011F00E94380188819981009711F00E94EE
:1009D00038018C819D81009711F00E943801DF91D0
:1009E000CF910895AF92BF92CF92DF92EF92FF9294
:1009F0000F931F93CF93DF93EC015B01888599855B
:100A0000892B09F44AC090E009C0E92FF0E0EE0F0D
:100A1000FF1FEA0DFB1D118210829F5F8A859817C8
:100A2000A0F3CC241BC08D2D90E07C01EE0CFF1CAC
:100A3000EA0CFB1CF70100811181E885F985E80FBC
:100A4000F91F80810E94C10A080F191FF701118345
:100A50000083D3948A85D81630F3C3948F85C81643
:100A600010F040E017C0DD24F5CFE42FF0E0EE0FEA
:100A7000FF1FEA0DFB1D6F85862F90E095958795EA
:100A800020813181820F931F70E00E949410718346
:100A900060834F5F8A85481740F3DF91CF911F91A4
:100AA0000F91FF90EF90DF90CF90BF90AF9008959F
:100AB000CF93DF93EC018B858F3F59F061E00E946B
:100AC000E30A8B8561E00E94220B88EC90E00E9493
:100AD0007C0ADF91CF910895CF93DF93EC018B8552
:100AE0008F3F59F061E00E94E30A8B8560E00E942D
:100AF000220B88EC90E00E947C0ADF91CF91089550
:100B00006F927F928F929F92AF92BF92CF92DF921D
:100B1000FF920F931F93CF93DF93EC013B018885E6
:100B20009985892B09F473C0FF241CC00F2D10E098
:100B3000F801EE0FFF1FE60DF71D8C859D85918353
:100B40008083E885F985E00FF11F808161E00E94D4
:100B5000220BE885F985E00FF11F808161E00E949A
:100B6000E30AF3948A85F81608F38AE090E00E947D
:100B70007C0AFF2413C00F2D10E0E885F985E00FF3
:100B8000F11F808160E00E94E30AE885F985E00FAB
:100B9000F11F808160E00E94220BF3948A85F81691
:100BA00050F30E94FD095B016C0122C00E94FD0907
:100BB0004B018A189B08FF2418C00F2D10E0E88510
:100BC000F985E00FF11F80810E94760B892B61F47B
:100BD000F801EE0FFF1FE60DF71D80819181881649
:100BE000990610F491828082F3948A85F81628F38E
:100BF0000E94FD096A197B098C099D092C853D8598
:100C000040E050E0621773078407950778F2DF91A0
:100C1000CF911F910F91FF90DF90CF90BF90AF9039
:100C20009F908F907F906F900895CF92DF92EF9278
:100C3000FF920F931F93DF93CF93CDB7DEB7A097AB
:100C40000FB6F894DEBF0FBECDBF8C016B01F42E42
:100C5000842F8150823018F4C8010E945805D801B1
:100C60001E968C91882389F4C801B6010E948005E4
:100C7000C8010E946C05B2E0FB16D9F5C801BE019F
:100C80006F5F7F4F0E94800510C0C801B6010E94AF
:100C9000F204C8010E946C05E2E0FE1651F5C8019D
:100CA000BE016F5F7F4F0E94F20440E0BE016F5FA4
:100CB0007F4F1AC0E42FF0E0EE0FFF1F7601EE0E1B
:100CC000FF1EE60FF71FD8011C962D913C911D9732
:100CD00080819181281B390BF70180819181820FDE
:100CE000931F918380834F5FD8011A968C91481788
:100CF00008F3A0960FB6F894DEBF0FBECDBFCF911C
:100D0000DF911F910F91FF90EF90DF90CF900895AA
:100D10009F92AF92BF92CF92DF92EF92FF920F938A
:100D20001F93CF93DF93EC01162F072F942E22E011
:100D3000421711F0442351F48C819D81892B09F4D1
:100D4000A4C08E819F81892B09F49FC0892D815079
:100D5000823050F488819981892B09F496C08A8168
:100D60009B81892B09F491C0CE01612F702F492DF1
:100D70000E941506812F902F9C015901CC24DD245F
:100D800000E010E07CC081E0981669F4EA81FB8104
:100D9000E00FF11F20813181E881F981E00FF11F1F
:100DA000408151813DC0AC81BD81992059F4EE81D3
:100DB000FF81E00FF11F20813181A00FB11F4D9104
:100DC0005C912EC0A00FB11F8D919C91E881F9819B
:100DD000E00FF11F20813181EC85FD85821793079B
:100DE00010F4AF0105C0A9014E0F5F1F481B590B3E
:100DF000EE81FF81E00FF11F60817181EA81FB814B
:100E0000E00FF11F80819181EC85FD8568177907DE
:100E100010F49F0105C09C012E0F3F1F261B370BAE
:100E20007901E41AF50A01F1F5016081718180E030
:100E300090E09A0140E050E0621B730B840B950B2D
:100E400028EE33E040E050E00E947510970140E04A
:100E500050E00E94CA10C901F3E0293E3F0714F098
:100E600088EE93E097FF02C080E090E0F501819367
:100E700091935F010894C11CD11C0E5F1F4F8A859E
:100E800090E0C816D9060CF47ECFDF91CF911F9168
:100E90000F91FF90EF90DF90CF90BF90AF909F9019
:100EA00008952F923F924F925F926F927F928F920E
:100EB0009F92AF92BF92CF92DF92EF92FF920F93E9
:100EC0001F93DF93CF9300D000D0CDB7DEB78C0156
:100ED000F62EE72E2A830E948806D8011A96BC9126
:100EE000B9832F2D3E2DC9018C015524442466243D
:100EF000772443011C821B82AA24BB24650128EEAF
:100F0000222E23E0322E32C0F801E080F180FA81F7
:100F1000FF2321F091012E193F09790139ECE316E5
:100F2000F10414F04424439483E3E816F1049CF0A4
:100F3000B701882777FD8095982FA60195010E941B
:100F40007510660E771E881E991EAB81BC81AE0D92
:100F5000BF1DBC83AB83539488EE93E0A0E0B0E068
:100F6000A80EB91ECA1EDB1E0E5F1F4F99815916AF
:100F700058F2442021F5692F70E084EF91E0DC0104
:100F80006A9FC0016B9F900D7A9F900D1124845F22
:100F900091402091840130918501281739071CF474
:100FA00040E050E01AC088EE93E0689FA001699F7E
:100FB000500D789F500D1124485E53400EC0EB81B8
:100FC000FC819F0140E050E0C401B3010E94A810E1
:100FD000A9013093850120938401CA010F900F90DD
:100FE0000F900F90CF91DF911F910F91FF90EF9095
:100FF000DF90CF90BF90AF909F908F907F906F9039
:101000005F904F903F902F9008952F923F924F9274
:101010005F926F927F928F929F92AF92BF92CF9288
:10102000DF92EF92FF920F931F93DF93CF93CDB791
:10103000DEB7C356D0400FB6F894DEBF0FBECDBFAB
:101040007C015B016A01A2962FAFA297DA018D9114
:101050009C91892B11F5F701828590E0880F991FEB
:101060000E948E00D6018D939C93009709F4DFC0F7
:1010700020E030E00CC0C901880F991FD601ED9126
:10108000FC91E80FF91F118210822F5F3F4FF7018B
:10109000828590E02817390774F3D5018D919C91D2
:1010A000892B89F000E010E03E010894611C711C5E
:1010B00071E4272E312C2C0E3D1E61E2462E512C60
:1010C0004C0E5D1E28C0F701828590E0880F991FA5
:1010D0000E948E00D5018D939C93009709F4A7C0C0
:1010E00020E030E011C0C901880F991FD501ED91B2
:1010F000FC91E80FF91FD7011C968D919C911D97CB
:10110000918380832F5F3F4FF701828590E02817FE
:1011100039074CF3C7CFC701B301A2964FADA297D1
:101120000E941506D7011A968C91882E9924A10148
:10113000F301A4965FAE4EAEA49760E070E034C0B9
:101140000115110559F0A496AEADBFADA4972D9130
:101150003C91808191812817390758F480819181D1
:10116000A496AEADBFADA4978D939C9301151105C8
:1011700041F0DA012D913C91808191818217930792
:1011800028F480819181DA018D939C936F5F7F4F6A
:101190004E5F5F4F3296A4968EAD9FADA497029698
:1011A000A4969FAF8EAFA497681579054CF20F5F98
:1011B0001F4F0A30110509F0AECF40E050E020E0AB
:1011C00030E08E010F5B1F4FBE016F5D7F4F28C067
:1011D000F801E20FF31F80809180F601A081B181B8
:1011E000A20FB31F8D919C9111978815990510F44A
:1011F0008D929C92FB01E20FF31F80809180F5019C
:10120000A081B181A20FB31F8D919C911197881677
:10121000990610F48D929C924F5F5F4F2E5F3F4F67
:10122000D7011A968C9190E0481759078CF2CD5946
:10123000DF4F0FB6F894DEBF0FBECDBFCF91DF9169
:101240001F910F91FF90EF90DF90CF90BF90AF90E4
:101250009F908F907F906F905F904F903F902F90D6
:1012600008951F93CF93DF93EC01162F862F8150A3
:10127000823040F4AE014E5F5F4FCE01BE0121E0EF
:101280000E940508123011F0112349F4AE014A5FA3
:101290005F4FCE012496BE0120E00E940508DF9139
:1012A000CF911F910895EF92FF920F931F93CF93C9
:1012B000DF93EC017B01122F198218821B821A82A4
:1012C0001D821C821F821E82413118F080E18A87B4
:1012D00001C04A8788859985892B11F090E014C058
:1012E0008A8590E00E948E00998788870097B1F7E1
:1012F00010C0E92FF0E0A885B985AE0FBF1FEE0D35
:10130000FF1D80818C939F5F8A85981790F31B87C0
:101310000E87DF91CF911F910F91FF90EF9008956D
:10132000EF92FF920F931F937C01122F202F01E069
:101330000E945309F70117878FEF93E09587848701
:101340001F910F91FF90EF9008950F93FC01118270
:1013500010821382128215821482178216821186DD
:1013600010860E9490090F9108951F920F920FB658
:101370000F9211242F933F938F939F93AF93BF931B
:1013800080918A0190918B01A0918C01B0918D0187
:1013900030918E010196A11DB11D232F2D5F2D3798
:1013A00020F02D570196A11DB11D20938E01809331
:1013B0008A0190938B01A0938C01B0938D01809151
:1013C000860190918701A0918801B09189010196D1
:1013D000A11DB11D8093860190938701A093880180
:1013E000B0938901BF91AF919F918F913F912F91C0
:1013F0000F900FBE0F901F9018959FB7F8942091F3
:10140000860130918701409188015091890186B50C
:10141000A89B06C08F3F21F02F5F3F4F4F4F5F4F7C
:101420009FBF542F432F322F2227280F311D411DDC
:10143000511D82E0220F331F441F551F8A95D1F79B
:10144000B901CA0108959B01AC017FB7F89480915E
:10145000860190918701A0918801B091890166B5BC
:10146000A89B05C06F3F19F00196A11DB11D7FBF5C
:10147000BA2FA92F982F8827860F911DA11DB11D66
:1014800062E0880F991FAA1FBB1F6A95D1F7BC01A4
:101490002DC0FFB7F8948091860190918701A091AB
:1014A0008801B0918901E6B5A89B05C0EF3F19F00E
:1014B0000196A11DB11DFFBFBA2FA92F982F882714
:1014C0008E0F911DA11DB11DE2E0880F991FAA1F6B
:1014D000BB1FEA95D1F7861B970B885E9340C8F235
:1014E000215030404040504068517C4F211531051B
:1014F0004105510571F60895019739F0880F991F3C
:10150000880F991F02970197F1F70895789484B591
:10151000826084BD84B5816084BD85B5826085BDEF
:1015200085B5816085BDEEE6F0E0808181608083D5
:10153000E1E8F0E0108280818260808380818160B8
:101540008083E0E8F0E0808181608083E1EBF0E07F
:10155000808184608083E0EBF0E080818160808323
:10156000EAE7F0E08081846080838081826080830C
:101570008081816080838081806880831092C10037
:101580000895982F8E3008F09E5097708091330107
:101590008295880F880F807C892B80937C008091B6
:1015A0007A00806480937A0080917A0086FDFCCF77
:1015B0002091780040917900942F80E030E0282B32
:1015C000392BC9010895CF93DF93482F50E0CA010A
:1015D00086569F4FFC0134914A575F4FFA01849120
:1015E000882369F190E0880F991FFC01E859FF4FAB
:1015F000A591B491FC01EE58FF4FC591D49166239B
:1016000051F42FB7F8948C91932F909589238C9354
:10161000888189230BC0623061F42FB7F8948C91D4
:10162000932F909589238C938881832B88832FBF58
:1016300006C09FB7F8948C91832B8C939FBFDF914A
:10164000CF910895482F50E0CA0182559F4FFC0169
:101650002491CA0186569F4FFC0194914A575F4FCF
:10166000FA013491332309F440C0222351F123308D
:1016700071F0243028F42130A1F0223011F514C08B
:101680002630B1F02730C1F02430D9F404C0809165
:1016900080008F7703C0809180008F7D80938000D1
:1016A00010C084B58F7702C084B58F7D84BD09C01A
:1016B0008091B0008F7703C08091B0008F7D8093C0
:1016C000B000E32FF0E0EE0FFF1FEE58FF4FA591A3
:1016D000B4912FB7F894662321F48C9190958923C7
:1016E00002C08C91892B8C932FBF0895682F70E0D6
:1016F000CB0182559F4FFC012491CB0186569F4F11
:10170000FC0144916A577F4FFB019491992319F48E
:1017100020E030E03CC0222351F1233071F024302E
:1017200028F42130A1F0223011F514C02630B1F098
:101730002730C1F02430D9F404C0809180008F7725
:1017400003C0809180008F7D8093800010C084B59D
:101750008F7702C084B58F7D84BD09C08091B000B1
:101760008F7703C08091B0008F7D8093B000892F68
:1017700090E0880F991F84589F4FFC01A591B49168
:101780008C9120E030E0842311F021E030E0C901A9
:10179000089508951F920F920FB60F9211242F9360
:1017A0003F934F938F939F93EF93FF938091C0004C
:1017B00082FD1DC04091C6002091CF013091D00123
:1017C0002F5F3F4F2F7330708091D1019091D201E4
:1017D0002817390771F0E091CF01F091D001E1575E
:1017E000FE4F40833093D0012093CF0102C08091FF
:1017F000C600FF91EF919F918F914F913F912F9153
:101800000F900FBE0F901F901895E0912302F0915A
:101810002402E05CFF4F8191919120813181821BF4
:10182000930B8F739070892B11F00E94C90B089550
:101830001F920F920FB60F9211242F933F938F9305
:101840009F93EF93FF9320911302309114028091A4
:101850001502909116022817390731F48091C100C2
:101860008F7D8093C10014C0E0911502F0911602A3
:10187000ED52FE4F20818091150290911602019643
:101880008F73907090931602809315022093C60078
:10189000FF91EF919F918F913F912F910F900FBEEC
:1018A0000F901F901895AF92BF92DF92EF92FF9228
:1018B0000F931F93CF93DF93EC017A018B01DD240B
:1018C000403081EE580780E0680780E0780711F02B
:1018D000DD24D39491E0A92EB12CEC89FD89DD2083
:1018E00069F0C50108A002C0880F991F0A94E2F7A9
:1018F000808360E079E08DE390E005C0108260E8CD
:1019000074E88EE190E0A80197010E94A810215090
:10191000304040405040569547953795279580E197
:101920002030380720F0DD2011F0DD24D6CFE88903
:10193000F9893083EA89FB89208319A2EE89FF891E
:10194000408121E030E0C9010C8C02C0880F991F52
:101950000A94E2F7482B4083EE89FF894081C90150
:101960000D8C02C0880F991F0A94E2F7482B408320
:10197000EE89FF894081C9010E8C02C0880F991F32
:101980000A94E2F7482B4083EE89FF8980810F8C0F
:1019900002C0220F331F0A94E2F7209528232083E8
:1019A000DF91CF911F910F91FF90EF90DF90BF904B
:1019B000AF900895DC011C96ED91FC911D97E05CC1
:1019C000FF4F2191319180819181281B390B2F7319
:1019D0003070C9010895DC011C96ED91FC911D97B2
:1019E000E05CFF4F20813181E054F040DF01AE5BCD
:1019F000BF4F8D919C9111972817390719F42FEF3C
:101A00003FEF07C08D919C91E80FF91F8081282F2F
:101A100030E0C9010895DC011C96ED91FC911D9701
:101A2000E05CFF4F20813181E054F040DF01AE5B8C
:101A3000BF4F8D919C9111972817390719F42FEFFB
:101A40003FEF10C08D919C911197E80FF91F2081F5
:101A50008D919C91119701968F73907011969C9324
:101A60008E9330E0C9010895DC0191968C91919795
:101A7000882339F05496ED91FC915597808186FF2B
:101A8000F9CF91961C920895CF93DF93EC01EE85E8
:101A9000FF85E05CFF4F20813181E054F0402F5FF3
:101AA0003F4F2F733070DF01AE5BBF4F8D919C9124
:101AB000119728173907D1F3E05CFF4F808191819E
:101AC000E054F040E80FF91F6083EE85FF85E05C8D
:101AD000FF4F31832083EE89FF89208181E090E0F0
:101AE0000F8C02C0880F991F0A94E2F7282B2083DD
:101AF00081E089A3EC89FD8980818064808381E015
:101B000090E0DF91CF91089510921A02109219027D
:101B100088EE93E0A0E0B0E080931B0290931C025B
:101B2000A0931D02B0931E0280E491E090931802EE
:101B3000809317028FE891E0909324028093230210
:101B400083ED91E0909326028093250285EC90E04E
:101B5000909328028093270284EC90E090932A02CD
:101B60008093290280EC90E090932C0280932B02CA
:101B700081EC90E090932E0280932D0282EC90E015
:101B80009093300280932F0286EC90E09093320283
:101B90008093310284E08093330283E080933402A7
:101BA00087E08093350285E08093360281E0809360
:101BB00037020895CF93DF930E94860A0E940F0395
:101BC000C5E0DCE00E94DA012097E1F30E94050CF9
:101BD000F9CFCF92DF92EF92FF920F931F93CF93A3
:101BE000DF937C016B018A01C0E0D0E00FC0D60119
:101BF0006D916D01D701ED91FC910190F081E02D87
:101C0000C7010995C80FD91F0150104001151105D2
:101C100071F7CE01DF91CF911F910F91FF90EF905F
:101C2000DF90CF900895DC01ED91FC910190F0815F
:101C3000E02D09950895EF92FF920F931F938C0169
:101C4000DC01ED91FC910190F081E02D6DE00995B2
:101C50007C01D801ED91FC910190F081E02DC8014B
:101C60006AE009959C012E0D3F1DC9011F910F913E
:101C7000FF90EF900895CF93DF93EC01611571050C
:101C800019F420E030E00FC0DB010D900020E9F7EF
:101C90001197A61BB70BE881F9810280F381E02D33
:101CA000AD0109959C01C901DF91CF9108954F9233
:101CB0005F927F928F929F92AF92BF92CF92DF926C
:101CC000EF92FF920F931F93DF93CF93CDB7DEB7C1
:101CD000A1970FB6F894DEBF0FBECDBF2C01742EB6
:101CE000CB01223008F42AE019A231E2C32ED12C14
:101CF000CC0EDD1E822E9924AA24BB24672D752FBD
:101D0000A50194010E94A81079018A01C801B701B8
:101D1000A50194010E947510472D461B0894C10827
:101D2000D1084A3014F4405D01C0495CF60140839B
:101D3000E114F1040105110521F07E2C5F2DC8018D
:101D4000DDCFC201B6010E943B0EA1960FB6F894FA
:101D5000DEBF0FBECDBFCF91DF911F910F91FF90DE
:101D6000EF90DF90CF90BF90AF909F908F907F903B
:101D70005F904F900895DC012115310541F4ED91FC
:101D8000FC910190F081E02D642F099508950E9447
:101D9000570E0895EF92FF920F931F939A017B01C4
:101DA00000E010E0B801A7010E94BB0E1F910F9147
:101DB000FF90EF900895EF92FF920F931F937C0195
:101DC0000E943B0E8C01C7010E941B0E080F191FB9
:101DD000C8011F910F91FF90EF9008955058BB27B5
:101DE000AA270ED0E5C0D6D030F0DBD020F031F4F9
:101DF0009F3F11F41EF4CBC00EF4E095E7FBC1C089
:101E0000E92FE7D080F3BA176207730784079507B5
:101E100018F071F49EF5FFC00EF4E0950B2EBA2F6A
:101E2000A02D0B01B90190010C01CA01A0011124E0
:101E3000FF27591B99F0593F50F4503E68F11A168C
:101E4000F040A22F232F342F4427585FF3CF46951D
:101E500037952795A795F0405395C9F77EF41F163F
:101E6000BA0B620B730B840BBAF09150A1F0FF0F09
:101E7000BB1F661F771F881FC2F70EC0BA0F621FF5
:101E8000731F841F48F4879577956795B795F795E5
:101E90009E3F08F0B3CF9395880F08F09927EE0F77
:101EA00097958795089504D06894B111B5C00895A9
:101EB00098D088F09F5790F0B92F9927B751A0F08C
:101EC000D1F0660F771F881F991F1AF0BA95C9F7CE
:101ED00012C0B13081F09FD0B1E008959CC0672F4F
:101EE000782F8827B85F39F0B93FCCF3869577957E
:101EF0006795B395D9F73EF4909580957095619567
:101F00007F4F8F4F9F4F0895E89409C097FB3EF491
:101F100090958095709561957F4F8F4F9F4F992336
:101F2000A9F0F92F96E9BB279395F69587957795B4
:101F30006795B795F111F8CFFAF4BB0F11F460FF74
:101F40001BC06F5F7F4F8F4F9F4F16C0882311F0CC
:101F500096E911C0772321F09EE8872F762F05C0E0
:101F6000662371F096E8862F70E060E02AF09A957B
:101F7000660F771F881FDAF7880F9695879597F970
:101F8000089597F99F6780E870E060E008959FEFFB
:101F900080EC089500240A94161617061806090600
:101FA000089500240A9412161306140605060895CF
:101FB000092E0394000C11F4882352F0BB0F40F457
:101FC000BF2B11F460FF04C06F5F7F4F8F4F9F4F97
:101FD000089557FD9058440F551F59F05F3F71F019
:101FE0004795880F97FB991F61F09F3F79F0879580
:101FF0000895121613061406551FF2CF4695F1DF09
:1020000008C0161617061806991FF1CF8695710598
:10201000610508940895E894BB2766277727CB01CC
:1020200097F908950BD0C4CFB5DF28F0BADF18F0C8
:10203000952309F0A6CFABCF1124EECFCADFA0F3D2
:10204000959FD1F3950F50E0551F629FF001729F4D
:10205000BB27F00DB11D639FAA27F00DB11DAA1F6C
:10206000649F6627B00DA11D661F829F2227B00DB9
:10207000A11D621F739FB00DA11D621F839FA00D44
:10208000611D221F749F3327A00D611D231F849F94
:10209000600D211D822F762F6A2F11249F575040EB
:1020A0008AF0E1F088234AF0EE0FFF1FBB1F661F86
:1020B000771F881F91505040A9F79E3F510570F03F
:1020C00060CFAACF5F3FECF3983EDCF3869577951F
:1020D0006795B795F795E7959F5FC1F7FE2B880F3A
:1020E000911D9695879597F90895629FD001739FEA
:1020F000F001829FE00DF11D649FE00DF11D929FA4
:10210000F00D839FF00D749FF00D659FF00D9927E2
:10211000729FB00DE11DF91F639FB00DE11DF91F06
:10212000BD01CF0111240895AA1BBB1B51E107C0BB
:10213000AA1FBB1FA617B70710F0A61BB70B881F57
:10214000991F5A95A9F780959095BC01CD010895E6
:10215000A1E21A2EAA1BBB1BFD010DC0AA1FBB1FAB
:10216000EE1FFF1FA217B307E407F50720F0A21B1D
:10217000B30BE40BF50B661F771F881F991F1A948A
:1021800069F760957095809590959B01AC01BD01B4
:10219000CF01089597FB092E05260ED057FD04D0D8
:1021A000D7DF0AD0001C38F4509540953095219522
:1021B0003F4F4F4F5F4F0895F6F79095809570957C
:1021C00061957F4F8F4F9F4F0895EE0FFF1F059032
:1021D000F491E02D099410E0C6ECD0E004C0FE01BB
:1021E0000E94E7102296C83CD107C9F7F894FFCFA8
:1021F0004177616974696E6720666F7220796F75C7
:1022000000526561647921210020003D0200000137
:1022100000010064000000804000002042CDCC4C52
:102220003E23000100010203040506070000000030
:0C223000440DE90DDA0C0B0DEB0C340D25
:00000001FF
