S02B00005365677569646F725F64655F4C696E65615F5475746F7269616C5F7464726F626F746963612E7372D2
S11300000C9434000C943E000C943E000C943E007E
S11300100C943E000C943E000C943E000C943E0064
S11300200C943E000C943E000C943E000C943E0054
S11300300C943E000C943E000C943E000C943E0044
S11300400C943E000C943E000C943E000C943E0034
S11300500C943E000C943E000C943E000C943E0024
S11300600C943E000C943E0011241FBECFEFD8E048
S1130070DEBFCDBF0E9441000C9446000C940000EA
S113008008950E94400080E090E00895F894FFCF26
S9030000FC
